{
  "transactions": [
    {
      "hash": "0xce4c766e4948b1d0772d50cf83eceefb4e0a181d0b7e13de0758061be72c5e65",
      "transactionType": "CALL",
      "contractName": null,
      "contractAddress": "0x7a250d5630b4cf539739df2c5dacb4c659f2488d",
      "function": "swapExactETHForTokens(uint256,address[],address,uint256)",
      "arguments": [
        "0",
        "[0xC02aaA39b223FE8D0A0e5C4F27eAD9083C756Cc2, 0x4c89364F18Ecc562165820989549022e64eC2eD2]",
        "0xFA2B4cAA3B4723F86e8bCAA9bB5812828d7e55e3",
        "1773403499"
      ],
      "transaction": {
        "from": "0xfa2b4caa3b4723f86e8bcaa9bb5812828d7e55e3",
        "to": "0x7a250d5630b4cf539739df2c5dacb4c659f2488d",
        "gas": "0x333b3",
        "value": "0xe35fa931a0000",
        "input": "0x7ff36ab500000000000000000000000000000000000000000000000000000000000000000000000000000000000000000000000000000000000000000000000000000080000000000000000000000000fa2b4caa3b4723f86e8bcaa9bb5812828d7e55e30000000000000000000000000000000000000000000000000000000069b3fd6b0000000000000000000000000000000000000000000000000000000000000002000000000000000000000000c02aaa39b223fe8d0a0e5c4f27ead9083c756cc20000000000000000000000004c89364f18ecc562165820989549022e64ec2ed2",
        "nonce": "0x24",
        "chainId": "0x1"
      },
      "additionalContracts": [],
      "isFixedGasLimit": false
    },
    {
      "hash": "0xd2c848f4c5a37a3441888399f809e43d4c995460aa17e320b1e659c6a96e756a",
      "transactionType": "CALL",
      "contractName": null,
      "contractAddress": "0x0fc98ed8854ab7d92a3cb2989742ea973b4a2df1",
      "function": "setTreasury(address)",
      "arguments": [
        "0x000000000000000000000000000000000000dEaD"
      ],
      "transaction": {
        "from": "0xfa2b4caa3b4723f86e8bcaa9bb5812828d7e55e3",
        "to": "0x0fc98ed8854ab7d92a3cb2989742ea973b4a2df1",
        "gas": "0xae8b",
        "value": "0x0",
        "input": "0xf0f44260000000000000000000000000000000000000000000000000000000000000dead",
        "nonce": "0x25",
        "chainId": "0x1"
      },
      "additionalContracts": [],
      "isFixedGasLimit": false
    },
    {
      "hash": "0x6dbd7c4117af9e86233e89e1c1497a403a6b721a934316f86c09ecc9b5debf14",
      "transactionType": "CALL",
      "contractName": null,
      "contractAddress": "0x4c89364f18ecc562165820989549022e64ec2ed2",
      "function": "approve(address,uint256)",
      "arguments": [
        "0x4127e741a3C7654733Da8329dd69F3ce508A3023",
        "100000000000000000000"
      ],
      "transaction": {
        "from": "0xfa2b4caa3b4723f86e8bcaa9bb5812828d7e55e3",
        "to": "0x4c89364f18ecc562165820989549022e64ec2ed2",
        "gas": "0x10888",
        "value": "0x0",
        "input": "0x095ea7b30000000000000000000000004127e741a3c7654733da8329dd69f3ce508a30230000000000000000000000000000000000000000000000056bc75e2d63100000",
        "nonce": "0x26",
        "chainId": "0x1"
      },
      "additionalContracts": [],
      "isFixedGasLimit": false
    },
    {
      "hash": "0x7f54cdfec140bab3792de30ceb37daa17e6fb6cafdf3cd7cfa2b5dc14c064b32",
      "transactionType": "CALL",
      "contractName": null,
      "contractAddress": "0x4127e741a3c7654733da8329dd69f3ce508a3023",
      "function": "deposit(bytes32,uint256,bytes32)",
      "arguments": [
        "0x59214e18eaef5e5dbd50a9535ebf5cfb7849795e5a0f0805384766db52be5f73",
        "100000000000000000000",
        "0x3d0da35ec738b9e79e6610ba0a61796edf4deb71de601670616dea6bd5145128"
      ],
      "transaction": {
        "from": "0xfa2b4caa3b4723f86e8bcaa9bb5812828d7e55e3",
        "to": "0x4127e741a3c7654733da8329dd69f3ce508a3023",
        "gas": "0x1733f4",
        "value": "0x0",
        "input": "0x8a9e532c59214e18eaef5e5dbd50a9535ebf5cfb7849795e5a0f0805384766db52be5f730000000000000000000000000000000000000000000000056bc75e2d631000003d0da35ec738b9e79e6610ba0a61796edf4deb71de601670616dea6bd5145128",
        "nonce": "0x27",
        "chainId": "0x1"
      },
      "additionalContracts": [],
      "isFixedGasLimit": false
    },
    {
      "hash": "0x206d986834098585794c9a61c29489a1ce98c44766dc06dfef5997df1701ebe8",
      "transactionType": "CALL",
      "contractName": null,
      "contractAddress": "0x4c89364f18ecc562165820989549022e64ec2ed2",
      "function": "approve(address,uint256)",
      "arguments": [
        "0x4127e741a3C7654733Da8329dd69F3ce508A3023",
        "100000000000000000000"
      ],
      "transaction": {
        "from": "0xfa2b4caa3b4723f86e8bcaa9bb5812828d7e55e3",
        "to": "0x4c89364f18ecc562165820989549022e64ec2ed2",
        "gas": "0x10888",
        "value": "0x0",
        "input": "0x095ea7b30000000000000000000000004127e741a3c7654733da8329dd69f3ce508a30230000000000000000000000000000000000000000000000056bc75e2d63100000",
        "nonce": "0x28",
        "chainId": "0x1"
      },
      "additionalContracts": [],
      "isFixedGasLimit": false
    },
    {
      "hash": "0x94430aed3b8a2f7565f09031f11a1c2dd9566bd5b584975ebc9fc13ede788622",
      "transactionType": "CALL",
      "contractName": null,
      "contractAddress": "0x4127e741a3c7654733da8329dd69f3ce508a3023",
      "function": "deposit(bytes32,uint256,bytes32)",
      "arguments": [
        "0x7b3a10171f271328c26c879387399fd73c72fca938f6bc657beebe4a2a7b6eca",
        "100000000000000000000",
        "0x86ccac62f8eb08f73d194be485c6c2edc5e9a72676b5206f729675deee169ef0"
      ],
      "transaction": {
        "from": "0xfa2b4caa3b4723f86e8bcaa9bb5812828d7e55e3",
        "to": "0x4127e741a3c7654733da8329dd69f3ce508a3023",
        "gas": "0x16da0f",
        "value": "0x0",
        "input": "0x8a9e532c7b3a10171f271328c26c879387399fd73c72fca938f6bc657beebe4a2a7b6eca0000000000000000000000000000000000000000000000056bc75e2d6310000086ccac62f8eb08f73d194be485c6c2edc5e9a72676b5206f729675deee169ef0",
        "nonce": "0x29",
        "chainId": "0x1"
      },
      "additionalContracts": [],
      "isFixedGasLimit": false
    },
    {
      "hash": "0xc48291c8ae75556a7c7557e3ed6a8eb299d76f42259282ba42f4084677c998dd",
      "transactionType": "CALL",
      "contractName": null,
      "contractAddress": "0x4127e741a3c7654733da8329dd69f3ce508a3023",
      "function": "withdraw(bytes32,bytes32,address,uint256,bytes32)",
      "arguments": [
        "0x27280f9bf847532cf696721282e4990ece3d9a473ade266cb82725e8ff732f4e",
        "0x36906835053fc8952376adf42f28ff6a5cb3a4664e13ecaf27792dead52ef1cf",
        "0xFA2B4cAA3B4723F86e8bCAA9bB5812828d7e55e3",
        "100000000000000000000",
        "0x7b3a10171f271328c26c879387399fd73c72fca938f6bc657beebe4a2a7b6eca"
      ],
      "transaction": {
        "from": "0xfa2b4caa3b4723f86e8bcaa9bb5812828d7e55e3",
        "to": "0x4127e741a3c7654733da8329dd69f3ce508a3023",
        "gas": "0x338ed",
        "value": "0x0",
        "input": "0x7608ea1827280f9bf847532cf696721282e4990ece3d9a473ade266cb82725e8ff732f4e36906835053fc8952376adf42f28ff6a5cb3a4664e13ecaf27792dead52ef1cf000000000000000000000000fa2b4caa3b4723f86e8bcaa9bb5812828d7e55e30000000000000000000000000000000000000000000000056bc75e2d631000007b3a10171f271328c26c879387399fd73c72fca938f6bc657beebe4a2a7b6eca",
        "nonce": "0x2a",
        "chainId": "0x1"
      },
      "additionalContracts": [],
      "isFixedGasLimit": false
    },
    {
      "hash": "0xd7ac4a64288ccd192014af8537ae816bd66b251c55b4bffb3d905f015a9452ee",
      "transactionType": "CALL",
      "contractName": null,
      "contractAddress": "0x4c89364f18ecc562165820989549022e64ec2ed2",
      "function": "approve(address,uint256)",
      "arguments": [
        "0x4127e741a3C7654733Da8329dd69F3ce508A3023",
        "100000000000000000000"
      ],
      "transaction": {
        "from": "0xfa2b4caa3b4723f86e8bcaa9bb5812828d7e55e3",
        "to": "0x4c89364f18ecc562165820989549022e64ec2ed2",
        "gas": "0x10888",
        "value": "0x0",
        "input": "0x095ea7b30000000000000000000000004127e741a3c7654733da8329dd69f3ce508a30230000000000000000000000000000000000000000000000056bc75e2d63100000",
        "nonce": "0x2b",
        "chainId": "0x1"
      },
      "additionalContracts": [],
      "isFixedGasLimit": false
    },
    {
      "hash": "0x31af6c1d937e55683c74c90514609ddd5b61da9fef103c3e1f6f17daf7daea24",
      "transactionType": "CALL",
      "contractName": null,
      "contractAddress": "0x4127e741a3c7654733da8329dd69f3ce508a3023",
      "function": "deposit(bytes32,uint256,bytes32)",
      "arguments": [
        "0x8da65bc9662e0e8e154ca2026399883211ce653100b8a2d11515727b2ace6530",
        "100000000000000000000",
        "0x80e511dcc355e0eea4b774ee47321f52004de425e7349c32e3f3995bc211b603"
      ],
      "transaction": {
        "from": "0xfa2b4caa3b4723f86e8bcaa9bb5812828d7e55e3",
        "to": "0x4127e741a3c7654733da8329dd69f3ce508a3023",
        "gas": "0x16d9ec",
        "value": "0x0",
        "input": "0x8a9e532c8da65bc9662e0e8e154ca2026399883211ce653100b8a2d11515727b2ace65300000000000000000000000000000000000000000000000056bc75e2d6310000080e511dcc355e0eea4b774ee47321f52004de425e7349c32e3f3995bc211b603",
        "nonce": "0x2c",
        "chainId": "0x1"
      },
      "additionalContracts": [],
      "isFixedGasLimit": false
    },
    {
      "hash": "0x12f5d0d3fa7f93e868ab3f36250eb9755cfecc93c2df7f9d9f665be43e3324c0",
      "transactionType": "CALL",
      "contractName": null,
      "contractAddress": "0x0fc98ed8854ab7d92a3cb2989742ea973b4a2df1",
      "function": "setDarkPoolFee(uint256)",
      "arguments": [
        "0"
      ],
      "transaction": {
        "from": "0xfa2b4caa3b4723f86e8bcaa9bb5812828d7e55e3",
        "to": "0x0fc98ed8854ab7d92a3cb2989742ea973b4a2df1",
        "gas": "0x8758",
        "value": "0x0",
        "input": "0x2077b98d0000000000000000000000000000000000000000000000000000000000000000",
        "nonce": "0x2d",
        "chainId": "0x1"
      },
      "additionalContracts": [],
      "isFixedGasLimit": false
    },
    {
      "hash": "0xa0c758f39ec915e9b8e6b1b4ca0c59517caccc912795f091473e30909465d130",
      "transactionType": "CALL",
      "contractName": null,
      "contractAddress": "0x4127e741a3c7654733da8329dd69f3ce508a3023",
      "function": "withdraw(bytes32,bytes32,address,uint256,bytes32)",
      "arguments": [
        "0x0ceb2dd97de3c1f4779f13e9a4f361da37dd20a2368c8fa402ee3aa91d28f506",
        "0x05b310a14be26b357ac204e76db992b9a17942969c4f7d548a150c06b3f10bd2",
        "0xFA2B4cAA3B4723F86e8bCAA9bB5812828d7e55e3",
        "100000000000000000000",
        "0x8da65bc9662e0e8e154ca2026399883211ce653100b8a2d11515727b2ace6530"
      ],
      "transaction": {
        "from": "0xfa2b4caa3b4723f86e8bcaa9bb5812828d7e55e3",
        "to": "0x4127e741a3c7654733da8329dd69f3ce508a3023",
        "gas": "0x329c2",
        "value": "0x0",
        "input": "0x7608ea180ceb2dd97de3c1f4779f13e9a4f361da37dd20a2368c8fa402ee3aa91d28f50605b310a14be26b357ac204e76db992b9a17942969c4f7d548a150c06b3f10bd2000000000000000000000000fa2b4caa3b4723f86e8bcaa9bb5812828d7e55e30000000000000000000000000000000000000000000000056bc75e2d631000008da65bc9662e0e8e154ca2026399883211ce653100b8a2d11515727b2ace6530",
        "nonce": "0x2e",
        "chainId": "0x1"
      },
      "additionalContracts": [],
      "isFixedGasLimit": false
    },
    {
      "hash": "0x4932f64e8edb2002c3d2a808f06147059af6b56ce6aef9832d9e073587f97f7d",
      "transactionType": "CALL",
      "contractName": null,
      "contractAddress": "0x0fc98ed8854ab7d92a3cb2989742ea973b4a2df1",
      "function": "setDarkPoolFee(uint256)",
      "arguments": [
        "50"
      ],
      "transaction": {
        "from": "0xfa2b4caa3b4723f86e8bcaa9bb5812828d7e55e3",
        "to": "0x0fc98ed8854ab7d92a3cb2989742ea973b4a2df1",
        "gas": "0xfd93",
        "value": "0x0",
        "input": "0x2077b98d0000000000000000000000000000000000000000000000000000000000000032",
        "nonce": "0x2f",
        "chainId": "0x1"
      },
      "additionalContracts": [],
      "isFixedGasLimit": false
    },
    {
      "hash": "0xdce462766042ab7fef2e3532783f9d88e5dcca6c4971f48832531e3be1e88ecd",
      "transactionType": "CALL",
      "contractName": null,
      "contractAddress": "0x0fc98ed8854ab7d92a3cb2989742ea973b4a2df1",
      "function": "setProviderShare(uint256)",
      "arguments": [
        "0"
      ],
      "transaction": {
        "from": "0xfa2b4caa3b4723f86e8bcaa9bb5812828d7e55e3",
        "to": "0x0fc98ed8854ab7d92a3cb2989742ea973b4a2df1",
        "gas": "0x90d9",
        "value": "0x0",
        "input": "0xa822f8ba0000000000000000000000000000000000000000000000000000000000000000",
        "nonce": "0x30",
        "chainId": "0x1"
      },
      "additionalContracts": [],
      "isFixedGasLimit": false
    },
    {
      "hash": "0xdc1923f1e34cc88e3ccccf50f59961570f55b7d70b0eada8f915548b16e67957",
      "transactionType": "CALL",
      "contractName": null,
      "contractAddress": "0x4c89364f18ecc562165820989549022e64ec2ed2",
      "function": "approve(address,uint256)",
      "arguments": [
        "0x4127e741a3C7654733Da8329dd69F3ce508A3023",
        "100000000000000000000"
      ],
      "transaction": {
        "from": "0xfa2b4caa3b4723f86e8bcaa9bb5812828d7e55e3",
        "to": "0x4c89364f18ecc562165820989549022e64ec2ed2",
        "gas": "0x10888",
        "value": "0x0",
        "input": "0x095ea7b30000000000000000000000004127e741a3c7654733da8329dd69f3ce508a30230000000000000000000000000000000000000000000000056bc75e2d63100000",
        "nonce": "0x31",
        "chainId": "0x1"
      },
      "additionalContracts": [],
      "isFixedGasLimit": false
    },
    {
      "hash": "0x11dadc7d1312127fb46fa05da6ba15ff89da5ff4cc65ddfa54aff4b191a09e6a",
      "transactionType": "CALL",
      "contractName": null,
      "contractAddress": "0x4127e741a3c7654733da8329dd69f3ce508a3023",
      "function": "deposit(bytes32,uint256,bytes32)",
      "arguments": [
        "0x212ce7c18bd4a09975b48d939a7e6f5c5a5ecd0de10cd748b8f5a5fa92b7e963",
        "100000000000000000000",
        "0xed955c833d90630bec6a397c60250cc7c49061c8c0ac7e8300b2a2b85ea79576"
      ],
      "transaction": {
        "from": "0xfa2b4caa3b4723f86e8bcaa9bb5812828d7e55e3",
        "to": "0x4127e741a3c7654733da8329dd69f3ce508a3023",
        "gas": "0x12697d",
        "value": "0x0",
        "input": "0x8a9e532c212ce7c18bd4a09975b48d939a7e6f5c5a5ecd0de10cd748b8f5a5fa92b7e9630000000000000000000000000000000000000000000000056bc75e2d63100000ed955c833d90630bec6a397c60250cc7c49061c8c0ac7e8300b2a2b85ea79576",
        "nonce": "0x32",
        "chainId": "0x1"
      },
      "additionalContracts": [],
      "isFixedGasLimit": false
    },
    {
      "hash": "0xc0925cff0a9ef1d4ddb375adfba19e7d736fc615e45c73b4fc65b2bec32587b3",
      "transactionType": "CALL",
      "contractName": null,
      "contractAddress": "0x0fc98ed8854ab7d92a3cb2989742ea973b4a2df1",
      "function": "setProviderShare(uint256)",
      "arguments": [
        "1000"
      ],
      "transaction": {
        "from": "0xfa2b4caa3b4723f86e8bcaa9bb5812828d7e55e3",
        "to": "0x0fc98ed8854ab7d92a3cb2989742ea973b4a2df1",
        "gas": "0xff16",
        "value": "0x0",
        "input": "0xa822f8ba00000000000000000000000000000000000000000000000000000000000003e8",
        "nonce": "0x33",
        "chainId": "0x1"
      },
      "additionalContracts": [],
      "isFixedGasLimit": false
    },
    {
      "hash": "0x53cd716d9af5a85af7dd30e53421862cf29ae4338e4dc6259018ffda93f07e96",
      "transactionType": "CALL",
      "contractName": null,
      "contractAddress": "0x0fc98ed8854ab7d92a3cb2989742ea973b4a2df1",
      "function": "setProviderShare(uint256)",
      "arguments": [
        "10000"
      ],
      "transaction": {
        "from": "0xfa2b4caa3b4723f86e8bcaa9bb5812828d7e55e3",
        "to": "0x0fc98ed8854ab7d92a3cb2989742ea973b4a2df1",
        "gas": "0xac68",
        "value": "0x0",
        "input": "0xa822f8ba0000000000000000000000000000000000000000000000000000000000002710",
        "nonce": "0x34",
        "chainId": "0x1"
      },
      "additionalContracts": [],
      "isFixedGasLimit": false
    },
    {
      "hash": "0x990560b55da804d53f1ba99f176d84c198f01dccb2ac4dafaaf0376d1882e9ff",
      "transactionType": "CALL",
      "contractName": null,
      "contractAddress": "0x4c89364f18ecc562165820989549022e64ec2ed2",
      "function": "approve(address,uint256)",
      "arguments": [
        "0x4127e741a3C7654733Da8329dd69F3ce508A3023",
        "100000000000000000000"
      ],
      "transaction": {
        "from": "0xfa2b4caa3b4723f86e8bcaa9bb5812828d7e55e3",
        "to": "0x4c89364f18ecc562165820989549022e64ec2ed2",
        "gas": "0x10888",
        "value": "0x0",
        "input": "0x095ea7b30000000000000000000000004127e741a3c7654733da8329dd69f3ce508a30230000000000000000000000000000000000000000000000056bc75e2d63100000",
        "nonce": "0x35",
        "chainId": "0x1"
      },
      "additionalContracts": [],
      "isFixedGasLimit": false
    },
    {
      "hash": "0x3cf93e00f441fe991c0573e73f24f49a6e742a1830c9d11c932ee4ac2e7093bf",
      "transactionType": "CALL",
      "contractName": null,
      "contractAddress": "0x4127e741a3c7654733da8329dd69f3ce508a3023",
      "function": "deposit(bytes32,uint256,bytes32)",
      "arguments": [
        "0xaa6ac0833e815ff39df49bff2ee232f81142eb48238a1b6b411f1dcfeeeeefe0",
        "100000000000000000000",
        "0x69c21bfc63c9bf88b0051f105831c0de28c03521b515e2b4da4bb14f3c7dbe86"
      ],
      "transaction": {
        "from": "0xfa2b4caa3b4723f86e8bcaa9bb5812828d7e55e3",
        "to": "0x4127e741a3c7654733da8329dd69f3ce508a3023",
        "gas": "0x167790",
        "value": "0x0",
        "input": "0x8a9e532caa6ac0833e815ff39df49bff2ee232f81142eb48238a1b6b411f1dcfeeeeefe00000000000000000000000000000000000000000000000056bc75e2d6310000069c21bfc63c9bf88b0051f105831c0de28c03521b515e2b4da4bb14f3c7dbe86",
        "nonce": "0x36",
        "chainId": "0x1"
      },
      "additionalContracts": [],
      "isFixedGasLimit": false
    },
    {
      "hash": "0x57877c6ad846a5877380fc4430a7dff211c3ae223fb335d6cd4c2010e9e773e5",
      "transactionType": "CALL",
      "contractName": null,
      "contractAddress": "0x0fc98ed8854ab7d92a3cb2989742ea973b4a2df1",
      "function": "setProviderShare(uint256)",
      "arguments": [
        "1000"
      ],
      "transaction": {
        "from": "0xfa2b4caa3b4723f86e8bcaa9bb5812828d7e55e3",
        "to": "0x0fc98ed8854ab7d92a3cb2989742ea973b4a2df1",
        "gas": "0xac68",
        "value": "0x0",
        "input": "0xa822f8ba00000000000000000000000000000000000000000000000000000000000003e8",
        "nonce": "0x37",
        "chainId": "0x1"
      },
      "additionalContracts": [],
      "isFixedGasLimit": false
    },
    {
      "hash": "0x01299f91a2eab0aa91ba8d697ba3f83b940e9f8aa300f4f051fe04d1e7f53022",
      "transactionType": "CALL",
      "contractName": null,
      "contractAddress": "0x0fc98ed8854ab7d92a3cb2989742ea973b4a2df1",
      "function": "setTreasury(address)",
      "arguments": [
        "0xBEEF00000000000000000000000000000000BEEf"
      ],
      "transaction": {
        "from": "0xfa2b4caa3b4723f86e8bcaa9bb5812828d7e55e3",
        "to": "0x0fc98ed8854ab7d92a3cb2989742ea973b4a2df1",
        "gas": "0xaeae",
        "value": "0x0",
        "input": "0xf0f44260000000000000000000000000beef00000000000000000000000000000000beef",
        "nonce": "0x38",
        "chainId": "0x1"
      },
      "additionalContracts": [],
      "isFixedGasLimit": false
    },
    {
      "hash": "0xafba192ce8bce080c6a9842d220164c9e31030efa229dd5c148b148cdd301a76",
      "transactionType": "CALL",
      "contractName": null,
      "contractAddress": "0x4c89364f18ecc562165820989549022e64ec2ed2",
      "function": "approve(address,uint256)",
      "arguments": [
        "0x4127e741a3C7654733Da8329dd69F3ce508A3023",
        "100000000000000000000"
      ],
      "transaction": {
        "from": "0xfa2b4caa3b4723f86e8bcaa9bb5812828d7e55e3",
        "to": "0x4c89364f18ecc562165820989549022e64ec2ed2",
        "gas": "0x10888",
        "value": "0x0",
        "input": "0x095ea7b30000000000000000000000004127e741a3c7654733da8329dd69f3ce508a30230000000000000000000000000000000000000000000000056bc75e2d63100000",
        "nonce": "0x39",
        "chainId": "0x1"
      },
      "additionalContracts": [],
      "isFixedGasLimit": false
    },
    {
      "hash": "0x6cee531d3a2faf84b4b6c4130332746596f98aa867c22a04b9a2642603287004",
      "transactionType": "CALL",
      "contractName": null,
      "contractAddress": "0x4127e741a3c7654733da8329dd69f3ce508a3023",
      "function": "deposit(bytes32,uint256,bytes32)",
      "arguments": [
        "0x2f39131e59c47272909a6086d2f8d4b35f9b9d022f80067f55fd345cb38c2a81",
        "100000000000000000000",
        "0xefd27e02cd39da34aaa9d67dede0354b94eca4d904c7031bc9eb354173a0f587"
      ],
      "transaction": {
        "from": "0xfa2b4caa3b4723f86e8bcaa9bb5812828d7e55e3",
        "to": "0x4127e741a3c7654733da8329dd69f3ce508a3023",
        "gas": "0x15ef76",
        "value": "0x0",
        "input": "0x8a9e532c2f39131e59c47272909a6086d2f8d4b35f9b9d022f80067f55fd345cb38c2a810000000000000000000000000000000000000000000000056bc75e2d63100000efd27e02cd39da34aaa9d67dede0354b94eca4d904c7031bc9eb354173a0f587",
        "nonce": "0x3a",
        "chainId": "0x1"
      },
      "additionalContracts": [],
      "isFixedGasLimit": false
    },
    {
      "hash": "0x8eb2c0d79e695840ad55cb36de7132600ebf5a2bd22b0e679e190758d232c9d2",
      "transactionType": "CALL",
      "contractName": null,
      "contractAddress": "0x0fc98ed8854ab7d92a3cb2989742ea973b4a2df1",
      "function": "setTreasury(address)",
      "arguments": [
        "0x000000000000000000000000000000000000dEaD"
      ],
      "transaction": {
        "from": "0xfa2b4caa3b4723f86e8bcaa9bb5812828d7e55e3",
        "to": "0x0fc98ed8854ab7d92a3cb2989742ea973b4a2df1",
        "gas": "0xae8b",
        "value": "0x0",
        "input": "0xf0f44260000000000000000000000000000000000000000000000000000000000000dead",
        "nonce": "0x3b",
        "chainId": "0x1"
      },
      "additionalContracts": [],
      "isFixedGasLimit": false
    },
    {
      "hash": "0xa9286b61322327dd48685f7516070f1f4b06cc6c014b6daea4c76a2579fa6b29",
      "transactionType": "CALL",
      "contractName": null,
      "contractAddress": "0xc02aaa39b223fe8d0a0e5c4f27ead9083c756cc2",
      "function": "deposit()",
      "arguments": [],
      "transaction": {
        "from": "0xfa2b4caa3b4723f86e8bcaa9bb5812828d7e55e3",
        "to": "0xc02aaa39b223fe8d0a0e5c4f27ead9083c756cc2",
        "gas": "0xf2ff",
        "value": "0x38d7ea4c68000",
        "input": "0xd0e30db0",
        "nonce": "0x3c",
        "chainId": "0x1"
      },
      "additionalContracts": [],
      "isFixedGasLimit": false
    },
    {
      "hash": "0x5a6ae63d5b4718a4980ded549f5aa98a3413e29f6ca89283816df09cc30bc5f1",
      "transactionType": "CALL",
      "contractName": null,
      "contractAddress": "0x5e231f9b83763840901a2ac25c28982218ba5788",
      "function": "createPool(address,address,uint256)",
      "arguments": [
        "0x4c89364F18Ecc562165820989549022e64eC2eD2",
        "0xC02aaA39b223FE8D0A0e5C4F27eAD9083C756Cc2",
        "100"
      ],
      "transaction": {
        "from": "0xfa2b4caa3b4723f86e8bcaa9bb5812828d7e55e3",
        "to": "0x5e231f9b83763840901a2ac25c28982218ba5788",
        "gas": "0x14a549",
        "value": "0x0",
        "input": "0x51810fb50000000000000000000000004c89364f18ecc562165820989549022e64ec2ed2000000000000000000000000c02aaa39b223fe8d0a0e5c4f27ead9083c756cc20000000000000000000000000000000000000000000000000000000000000064",
        "nonce": "0x3d",
        "chainId": "0x1"
      },
      "additionalContracts": [
        {
          "transactionType": "CREATE",
          "contractName": "SaikoCustomPool",
          "address": "0xacbb77bbdf05b586d672a2b9852cd41c349df08a",
          "initCode": "0x610120346200026757601f6200131838819003918201601f1916830191906001600160401b038311848410176200026b578160a09285926040958652833981010312620002675762000051826200027f565b9162000060602082016200027f565b9082810151906200008260806200007a606084016200027f565b92016200027f565b60017f9b779b17422d0df92223018b32b4d1fa46e071723d6817e2486d003becc55f00556001600160a01b0395909390861690811515806200025b575b156200022a57861691828214620001f3578616958615620001be578416156200018b5760805260a0525f5561010092835260e0523360c0525161108391826200029583396080518281816101a40152818161074f01528181610ac30152610e16015260a0518281816101f90152818161061a015281816106bf0152818161077b01528181610aee0152610cf7015260c05182818161011e0152610c49015260e0518281816104490152610d3b01525181818161029a015281816103db0152818161048a0152610d7f0152f35b845162461bcd60e51b815260206004820152600c60248201526b5a65726f207374616b696e6760a01b6044820152606490fd5b855162461bcd60e51b815260206004820152600e60248201526d5a65726f20666565436f6e66696760901b6044820152606490fd5b855162461bcd60e51b815260206004820152601060248201526f4964656e746963616c20746f6b656e7360801b6044820152606490fd5b855162461bcd60e51b815260206004820152600a6024820152692d32b937903a37b5b2b760b11b6044820152606490fd5b508681161515620000bf565b5f80fd5b634e487b7160e01b5f52604160045260245ffd5b51906001600160a01b0382168203620002675756fe6080806040526004361015610012575f80fd5b5f3560e01c9081630fc63d1014610e045750806318160ddd14610de757806319e36f3b14610dca5780631a1c6e5314610dae5780631e5eb1d014610d6a5780634cf088d914610d265780635f64b55b14610ce257806369fe0e2d14610c3357806370a0823114610bfb5780639c8f9f23146109fc5780639cd441da1461071a5780639f1d0f5914610169578063ba9a7a561461014d578063c45a015514610109578063dc5fa6c5146100ec5763e1a45218146100cc575f80fd5b346100e8575f3660031901126100e85760206040516127108152f35b5f80fd5b346100e8575f3660031901126100e8576020600154604051908152f35b346100e8575f3660031901126100e8576040517f00000000000000000000000000000000000000000000000000000000000000006001600160a01b03168152602090f35b346100e8575f3660031901126100e85760206040516103e88152f35b346100e85760603660031901126100e857610182610e45565b602490604490610190610f16565b8235156106e7576001600160a01b038181167f00000000000000000000000000000000000000000000000000000000000000009182161493908480156106b1575b1561067c576001549182151580610671575b1561063f57851561061857815b861561061257507f0000000000000000000000000000000000000000000000000000000000000000915b861561060957835b87156105fc5750610269610275600254955b6102418535303387610fc3565b61026f6127106102535f548835610e95565b0497610260898835610ec6565b94859182610e95565b92610ed3565b90610ea8565b96803588106105c5578715610594575060405163121d9fa360e21b81526020816004817f00000000000000000000000000000000000000000000000000000000000000006001600160a01b03165afa908115610521575f91610560575b506102e06127109187610e95565b04976102ec8987610ec6565b92896103c6575b50602098501561039a576103129161030a91610ed3565b600154610ed3565b60015561032185600254610ec6565b6002555b610330853384610f45565b6040519360018060a01b03168452358584015260018060a01b0316604083015282606083015260808201527f51e00ff851e6d19ee3412286211af0aa9676df8d942e677195fc7445b4c08e3060a03392a260015f8051602061102e83398151915255604051908152f35b6103af916103a791610ed3565b600254610ed3565b6002556103be85600154610ec6565b600155610325565b604051630166d9e160e01b81526020816004817f00000000000000000000000000000000000000000000000000000000000000006001600160a01b03165afa908115610521575f9161052c575b5061271061042461042c928d610e95565b04809b610ec6565b998a610475575b60209a5080610443575b506102f3565b61046e917f000000000000000000000000000000000000000000000000000000000000000090610f45565b898061043d565b6040516361d027b360e01b81526020816004817f00000000000000000000000000000000000000000000000000000000000000006001600160a01b03165afa908115610521575f916104de575b5060209b6104d9916001600160a01b031684610f45565b610433565b90506020813d602011610519575b816104f960209383610ee0565b810103126100e857516001600160a01b03811681036100e85760206104c2565b3d91506104ec565b6040513d5f823e3d90fd5b90506020813d602011610558575b8161054760209383610ee0565b810103126100e85751612710610413565b3d915061053a565b90506020813d60201161058c575b8161057b60209383610ee0565b810103126100e857516102e06102d2565b3d915061056e565b836a16995c9bc81bdd5d1c1d5d60aa1b606492600b6040519362461bcd60e51b855260206004860152840152820152fd5b837014db1a5c1c1859d948195e18d959591959607a1b60649260116040519362461bcd60e51b855260206004860152840152820152fd5b6102756102699195610234565b60025493610222565b9161021a565b7f0000000000000000000000000000000000000000000000000000000000000000916101f0565b6064906b4e6f206c697175696469747960a01b86600c6040519362461bcd60e51b855260206004860152840152820152fd5b5060025415156101e3565b60405162461bcd60e51b815260206004820152600f818401526e24b73b30b634b2103a37b5b2b724b760891b81860152606490fd5b506001600160a01b038381167f0000000000000000000000000000000000000000000000000000000000000000909116146101d1565b60405162461bcd60e51b815260206004820152600d818501526c2d32b9379030b6b7bab73a24b760991b81840152606490fd5b346100e85760403660031901126100e857600435602435610739610f16565b811515806109f3575b156109bf576107738230337f0000000000000000000000000000000000000000000000000000000000000000610fc3565b61079f8130337f0000000000000000000000000000000000000000000000000000000000000000610fc3565b6003548061095657506107b28183610e95565b915f60038411156109475750826001908060011c600181018091116108ce5791905b858310610927575050505b6103e8808411156108e25760038190555f805260046020527f17ef568e3e12ab5b9c7254a8d58478811de00f9e6eb34345acd53bf8fd09d3ec556103e71983019283116108ce577f64b83944e79c3ce8d4c297411de637c3e102d064677aac0c163976ebdcd6f50e60209380935b610858821515610e5b565b335f526004865260405f2061086e838254610ed3565b905561087c82600354610ed3565b60035561088b84600154610ed3565b60015561089a81600254610ed3565b6002556040805194855260208501919091528301523391606090a260015f8051602061102e83398151915255604051908152f35b634e487b7160e01b5f52601160045260245ffd5b60405162461bcd60e51b815260206004820152601e60248201527f496e73756666696369656e7420696e697469616c206c697175696469747900006044820152606490fd5b9091945061093e856109398184610ea8565b610ed3565b821c91906107d4565b92156107df57600192506107df565b917f64b83944e79c3ce8d4c297411de637c3e102d064677aac0c163976ebdcd6f50e836109a761099e61099761098e60209887610e95565b60015490610ea8565b9286610e95565b60025490610ea8565b808210156109b857505b809361084d565b90506109b1565b60405162461bcd60e51b815260206004820152600c60248201526b5a65726f20616d6f756e747360a01b6044820152606490fd5b50801515610742565b346100e8576020806003193601126100e857600435610a19610f16565b610a24811515610e5b565b335f52600482528060405f205410610bc057610a4260015482610e95565b90610a65610a536003548094610ea8565b92610a6060025484610e95565b610ea8565b9082151580610bb7575b15610b725792604093335f5260048252845f20610a8d828254610ec6565b9055610a9b81600354610ec6565b600355610aaa84600154610ec6565b600155610ab983600254610ec6565b600255610ae784337f0000000000000000000000000000000000000000000000000000000000000000610f45565b610b1283337f0000000000000000000000000000000000000000000000000000000000000000610f45565b7f1dc8bb69df2b8e91fbdcbfcf93d951b3f0000f085a95fe3f7946d6161439245d855180610b5433948789846040919493926060820195825260208201520152565b0390a260015f8051602061102e833981519152558351928352820152f35b60405162461bcd60e51b815260048101859052601d60248201527f496e73756666696369656e74206c6971756964697479206275726e65640000006044820152606490fd5b50811515610a6f565b60405162461bcd60e51b8152600481018390526013602482015272496e73756666696369656e742073686172657360681b6044820152606490fd5b346100e85760203660031901126100e8576001600160a01b03610c1c610e45565b165f526004602052602060405f2054604051908152f35b346100e85760203660031901126100e8576004357f00000000000000000000000000000000000000000000000000000000000000006001600160a01b03163303610cae5760407f528d9479e9f9889a87a3c30c7f7ba537e5e59c4c85a37733b16e57c62df61302915f5490805f5582519182526020820152a1005b60405162461bcd60e51b815260206004820152600c60248201526b4f6e6c7920666163746f727960a01b6044820152606490fd5b346100e8575f3660031901126100e8576040517f00000000000000000000000000000000000000000000000000000000000000006001600160a01b03168152602090f35b346100e8575f3660031901126100e8576040517f00000000000000000000000000000000000000000000000000000000000000006001600160a01b03168152602090f35b346100e8575f3660031901126100e8576040517f00000000000000000000000000000000000000000000000000000000000000006001600160a01b03168152602090f35b346100e8575f3660031901126100e85760205f54604051908152f35b346100e8575f3660031901126100e8576020600254604051908152f35b346100e8575f3660031901126100e8576020600354604051908152f35b346100e8575f3660031901126100e8577f00000000000000000000000000000000000000000000000000000000000000006001600160a01b03168152602090f35b600435906001600160a01b03821682036100e857565b15610e6257565b60405162461bcd60e51b815260206004820152600b60248201526a5a65726f2073686172657360a81b6044820152606490fd5b818102929181159184041417156108ce57565b8115610eb2570490565b634e487b7160e01b5f52601260045260245ffd5b919082039182116108ce57565b919082018092116108ce57565b90601f8019910116810190811067ffffffffffffffff821117610f0257604052565b634e487b7160e01b5f52604160045260245ffd5b5f8051602061102e8339815191526002815414610f335760029055565b604051633ee5aeb560e01b8152600490fd5b60405163a9059cbb60e01b5f9081526001600160a01b039384166004526024949094529260209060448180855af160015f5114811615610fa4575b8360405215610f8e57505050565b635274afe760e01b835216600482015260249150fd5b6001811516610fba57813b15153d151616610f80565b833d5f823e3d90fd5b6040516323b872dd60e01b5f9081526001600160a01b03938416600452938316602452604494909452909160209060648180855af160015f5114811615611017575b836040525f60605215610f8e57505050565b6001811516610fba57813b15153d15161661100556fe9b779b17422d0df92223018b32b4d1fa46e071723d6817e2486d003becc55f00a26469706673582212202e5d6b62bbb46f6a543c961dec88879c4b37d65b0d8d5a4a8a5ae39f1e38e5bc64736f6c634300081800330000000000000000000000004c89364f18ecc562165820989549022e64ec2ed2000000000000000000000000c02aaa39b223fe8d0a0e5c4f27ead9083c756cc200000000000000000000000000000000000000000000000000000000000000640000000000000000000000000fc98ed8854ab7d92a3cb2989742ea973b4a2df1000000000000000000000000eea4779eb6cd69bbfa636a036e17d7845547e4fe"
        }
      ],
      "isFixedGasLimit": false
    },
    {
      "hash": "0x3f757d7ccd48a7289faf2e72b4f9d1690edd6c53eaee34cf52fe629f6a09ef0a",
      "transactionType": "CALL",
      "contractName": null,
      "contractAddress": "0x4c89364f18ecc562165820989549022e64ec2ed2",
      "function": "approve(address,uint256)",
      "arguments": [
        "0xACbB77BBdF05B586D672a2B9852CD41c349dF08A",
        "1000000000000000000000"
      ],
      "transaction": {
        "from": "0xfa2b4caa3b4723f86e8bcaa9bb5812828d7e55e3",
        "to": "0x4c89364f18ecc562165820989549022e64ec2ed2",
        "gas": "0x10888",
        "value": "0x0",
        "input": "0x095ea7b3000000000000000000000000acbb77bbdf05b586d672a2b9852cd41c349df08a00000000000000000000000000000000000000000000003635c9adc5dea00000",
        "nonce": "0x3e",
        "chainId": "0x1"
      },
      "additionalContracts": [],
      "isFixedGasLimit": false
    },
    {
      "hash": "0xc7f169a42e78e0f2f1d6e2ed198112146bdb839c10cf0a441b7cdcbb7849f611",
      "transactionType": "CALL",
      "contractName": null,
      "contractAddress": "0xc02aaa39b223fe8d0a0e5c4f27ead9083c756cc2",
      "function": "approve(address,uint256)",
      "arguments": [
        "0xACbB77BBdF05B586D672a2B9852CD41c349dF08A",
        "500000000000000"
      ],
      "transaction": {
        "from": "0xfa2b4caa3b4723f86e8bcaa9bb5812828d7e55e3",
        "to": "0xc02aaa39b223fe8d0a0e5c4f27ead9083c756cc2",
        "gas": "0xf879",
        "value": "0x0",
        "input": "0x095ea7b3000000000000000000000000acbb77bbdf05b586d672a2b9852cd41c349df08a0000000000000000000000000000000000000000000000000001c6bf52634000",
        "nonce": "0x3f",
        "chainId": "0x1"
      },
      "additionalContracts": [],
      "isFixedGasLimit": false
    },
    {
      "hash": "0x44f575774a46c1b71d1a76da31b1fd14b7c31ac297d07cc78c38cfec9ba9e735",
      "transactionType": "CALL",
      "contractName": "SaikoCustomPool",
      "contractAddress": "0xacbb77bbdf05b586d672a2b9852cd41c349df08a",
      "function": "addLiquidity(uint256,uint256)",
      "arguments": [
        "1000000000000000000000",
        "500000000000000"
      ],
      "transaction": {
        "from": "0xfa2b4caa3b4723f86e8bcaa9bb5812828d7e55e3",
        "to": "0xacbb77bbdf05b586d672a2b9852cd41c349df08a",
        "gas": "0x51318",
        "value": "0x0",
        "input": "0x9cd441da00000000000000000000000000000000000000000000003635c9adc5dea000000000000000000000000000000000000000000000000000000001c6bf52634000",
        "nonce": "0x40",
        "chainId": "0x1"
      },
      "additionalContracts": [],
      "isFixedGasLimit": false
    },
    {
      "hash": "0xdd454cfea7a39a3cba0632689297e7c9d43a056a43ec2af440f1c36877727e14",
      "transactionType": "CALL",
      "contractName": null,
      "contractAddress": "0x4c89364f18ecc562165820989549022e64ec2ed2",
      "function": "approve(address,uint256)",
      "arguments": [
        "0xACbB77BBdF05B586D672a2B9852CD41c349dF08A",
        "10000000000000000000"
      ],
      "transaction": {
        "from": "0xfa2b4caa3b4723f86e8bcaa9bb5812828d7e55e3",
        "to": "0x4c89364f18ecc562165820989549022e64ec2ed2",
        "gas": "0xf9c5",
        "value": "0x0",
        "input": "0x095ea7b3000000000000000000000000acbb77bbdf05b586d672a2b9852cd41c349df08a0000000000000000000000000000000000000000000000008ac7230489e80000",
        "nonce": "0x41",
        "chainId": "0x1"
      },
      "additionalContracts": [],
      "isFixedGasLimit": false
    },
    {
      "hash": "0x82d0f04e13150cad898b1f6bb9577cad81d21d2a3caa6e263fb57a1ea531b937",
      "transactionType": "CALL",
      "contractName": "SaikoCustomPool",
      "contractAddress": "0xacbb77bbdf05b586d672a2b9852cd41c349df08a",
      "function": "swap(address,uint256,uint256)",
      "arguments": [
        "0x4c89364F18Ecc562165820989549022e64eC2eD2",
        "10000000000000000000",
        "0"
      ],
      "transaction": {
        "from": "0xfa2b4caa3b4723f86e8bcaa9bb5812828d7e55e3",
        "to": "0xacbb77bbdf05b586d672a2b9852cd41c349df08a",
        "gas": "0x2f1b5",
        "value": "0x0",
        "input": "0x9f1d0f590000000000000000000000004c89364f18ecc562165820989549022e64ec2ed20000000000000000000000000000000000000000000000008ac7230489e800000000000000000000000000000000000000000000000000000000000000000000",
        "nonce": "0x42",
        "chainId": "0x1"
      },
      "additionalContracts": [],
      "isFixedGasLimit": false
    },
    {
      "hash": "0x13a37a505fe91f7c748ff542c0af017b03f201435936e78712f729b5ab7fc47c",
      "transactionType": "CALL",
      "contractName": null,
      "contractAddress": "0x0fc98ed8854ab7d92a3cb2989742ea973b4a2df1",
      "function": "setSaikoCustomCut(uint256)",
      "arguments": [
        "10000"
      ],
      "transaction": {
        "from": "0xfa2b4caa3b4723f86e8bcaa9bb5812828d7e55e3",
        "to": "0x0fc98ed8854ab7d92a3cb2989742ea973b4a2df1",
        "gas": "0xa297",
        "value": "0x0",
        "input": "0x8099f46c0000000000000000000000000000000000000000000000000000000000002710",
        "nonce": "0x43",
        "chainId": "0x1"
      },
      "additionalContracts": [],
      "isFixedGasLimit": false
    },
    {
      "hash": "0x7bfd7511c70a8e2210cef8f267d25a41b95a19d8b8693d6ea876ca4833f3cb1c",
      "transactionType": "CALL",
      "contractName": null,
      "contractAddress": "0x4c89364f18ecc562165820989549022e64ec2ed2",
      "function": "approve(address,uint256)",
      "arguments": [
        "0xACbB77BBdF05B586D672a2B9852CD41c349dF08A",
        "10000000000000000000"
      ],
      "transaction": {
        "from": "0xfa2b4caa3b4723f86e8bcaa9bb5812828d7e55e3",
        "to": "0x4c89364f18ecc562165820989549022e64ec2ed2",
        "gas": "0xf9c5",
        "value": "0x0",
        "input": "0x095ea7b3000000000000000000000000acbb77bbdf05b586d672a2b9852cd41c349df08a0000000000000000000000000000000000000000000000008ac7230489e80000",
        "nonce": "0x44",
        "chainId": "0x1"
      },
      "additionalContracts": [],
      "isFixedGasLimit": false
    },
    {
      "hash": "0x654cfd2d33c8d7b95d0a1cefbb89fa290b8a30e77209481472fd965e98a85895",
      "transactionType": "CALL",
      "contractName": "SaikoCustomPool",
      "contractAddress": "0xacbb77bbdf05b586d672a2b9852cd41c349df08a",
      "function": "swap(address,uint256,uint256)",
      "arguments": [
        "0x4c89364F18Ecc562165820989549022e64eC2eD2",
        "10000000000000000000",
        "0"
      ],
      "transaction": {
        "from": "0xfa2b4caa3b4723f86e8bcaa9bb5812828d7e55e3",
        "to": "0xacbb77bbdf05b586d672a2b9852cd41c349df08a",
        "gas": "0x2f1b5",
        "value": "0x0",
        "input": "0x9f1d0f590000000000000000000000004c89364f18ecc562165820989549022e64ec2ed20000000000000000000000000000000000000000000000008ac7230489e800000000000000000000000000000000000000000000000000000000000000000000",
        "nonce": "0x45",
        "chainId": "0x1"
      },
      "additionalContracts": [],
      "isFixedGasLimit": false
    },
    {
      "hash": "0xd28e0485f45b4df5a92ff36a5cf2b9fca3269bd9ea825cba957a7796dc4256f2",
      "transactionType": "CALL",
      "contractName": null,
      "contractAddress": "0x0fc98ed8854ab7d92a3cb2989742ea973b4a2df1",
      "function": "setSaikoCustomCut(uint256)",
      "arguments": [
        "5000"
      ],
      "transaction": {
        "from": "0xfa2b4caa3b4723f86e8bcaa9bb5812828d7e55e3",
        "to": "0x0fc98ed8854ab7d92a3cb2989742ea973b4a2df1",
        "gas": "0xa297",
        "value": "0x0",
        "input": "0x8099f46c0000000000000000000000000000000000000000000000000000000000001388",
        "nonce": "0x46",
        "chainId": "0x1"
      },
      "additionalContracts": [],
      "isFixedGasLimit": false
    },
    {
      "hash": "0xae369bf0cd3e0df7c0cf586de0b8aa5c2950441047eea972c76bd2c0f670dca8",
      "transactionType": "CALL",
      "contractName": null,
      "contractAddress": "0x0fc98ed8854ab7d92a3cb2989742ea973b4a2df1",
      "function": "setTreasury(address)",
      "arguments": [
        "0xFA2B4cAA3B4723F86e8bCAA9bB5812828d7e55e3"
      ],
      "transaction": {
        "from": "0xfa2b4caa3b4723f86e8bcaa9bb5812828d7e55e3",
        "to": "0x0fc98ed8854ab7d92a3cb2989742ea973b4a2df1",
        "gas": "0xafc7",
        "value": "0x0",
        "input": "0xf0f44260000000000000000000000000fa2b4caa3b4723f86e8bcaa9bb5812828d7e55e3",
        "nonce": "0x47",
        "chainId": "0x1"
      },
      "additionalContracts": [],
      "isFixedGasLimit": false
    }
  ],
  "receipts": [],
  "libraries": [],
  "pending": [
    "0xce4c766e4948b1d0772d50cf83eceefb4e0a181d0b7e13de0758061be72c5e65",
    "0xd2c848f4c5a37a3441888399f809e43d4c995460aa17e320b1e659c6a96e756a",
    "0x6dbd7c4117af9e86233e89e1c1497a403a6b721a934316f86c09ecc9b5debf14",
    "0x7f54cdfec140bab3792de30ceb37daa17e6fb6cafdf3cd7cfa2b5dc14c064b32",
    "0x206d986834098585794c9a61c29489a1ce98c44766dc06dfef5997df1701ebe8",
    "0x94430aed3b8a2f7565f09031f11a1c2dd9566bd5b584975ebc9fc13ede788622",
    "0xc48291c8ae75556a7c7557e3ed6a8eb299d76f42259282ba42f4084677c998dd",
    "0xd7ac4a64288ccd192014af8537ae816bd66b251c55b4bffb3d905f015a9452ee",
    "0x31af6c1d937e55683c74c90514609ddd5b61da9fef103c3e1f6f17daf7daea24",
    "0x12f5d0d3fa7f93e868ab3f36250eb9755cfecc93c2df7f9d9f665be43e3324c0",
    "0xa0c758f39ec915e9b8e6b1b4ca0c59517caccc912795f091473e30909465d130",
    "0x4932f64e8edb2002c3d2a808f06147059af6b56ce6aef9832d9e073587f97f7d",
    "0xdce462766042ab7fef2e3532783f9d88e5dcca6c4971f48832531e3be1e88ecd",
    "0xdc1923f1e34cc88e3ccccf50f59961570f55b7d70b0eada8f915548b16e67957",
    "0x11dadc7d1312127fb46fa05da6ba15ff89da5ff4cc65ddfa54aff4b191a09e6a",
    "0xc0925cff0a9ef1d4ddb375adfba19e7d736fc615e45c73b4fc65b2bec32587b3",
    "0x53cd716d9af5a85af7dd30e53421862cf29ae4338e4dc6259018ffda93f07e96",
    "0x990560b55da804d53f1ba99f176d84c198f01dccb2ac4dafaaf0376d1882e9ff",
    "0x3cf93e00f441fe991c0573e73f24f49a6e742a1830c9d11c932ee4ac2e7093bf",
    "0x57877c6ad846a5877380fc4430a7dff211c3ae223fb335d6cd4c2010e9e773e5",
    "0x01299f91a2eab0aa91ba8d697ba3f83b940e9f8aa300f4f051fe04d1e7f53022",
    "0xafba192ce8bce080c6a9842d220164c9e31030efa229dd5c148b148cdd301a76",
    "0x6cee531d3a2faf84b4b6c4130332746596f98aa867c22a04b9a2642603287004",
    "0x8eb2c0d79e695840ad55cb36de7132600ebf5a2bd22b0e679e190758d232c9d2",
    "0xa9286b61322327dd48685f7516070f1f4b06cc6c014b6daea4c76a2579fa6b29",
    "0x5a6ae63d5b4718a4980ded549f5aa98a3413e29f6ca89283816df09cc30bc5f1",
    "0x3f757d7ccd48a7289faf2e72b4f9d1690edd6c53eaee34cf52fe629f6a09ef0a",
    "0xc7f169a42e78e0f2f1d6e2ed198112146bdb839c10cf0a441b7cdcbb7849f611",
    "0x44f575774a46c1b71d1a76da31b1fd14b7c31ac297d07cc78c38cfec9ba9e735",
    "0xdd454cfea7a39a3cba0632689297e7c9d43a056a43ec2af440f1c36877727e14",
    "0x82d0f04e13150cad898b1f6bb9577cad81d21d2a3caa6e263fb57a1ea531b937",
    "0x13a37a505fe91f7c748ff542c0af017b03f201435936e78712f729b5ab7fc47c",
    "0x7bfd7511c70a8e2210cef8f267d25a41b95a19d8b8693d6ea876ca4833f3cb1c",
    "0x654cfd2d33c8d7b95d0a1cefbb89fa290b8a30e77209481472fd965e98a85895",
    "0xd28e0485f45b4df5a92ff36a5cf2b9fca3269bd9ea825cba957a7796dc4256f2",
    "0xae369bf0cd3e0df7c0cf586de0b8aa5c2950441047eea972c76bd2c0f670dca8"
  ],
  "returns": {},
  "timestamp": 1773403285574,
  "chain": 1,
  "commit": "f8c8cc9"
}